23700000         2232800840001600000000000000545084101692600000002699133LAR SAO VICENTE DE PAULO DE PABRADESCO                                20909202203111900012008301600                                        00000                        
23700011T01  042 20232800840001600000000000000545084101692600000002699133LAR SAO VICENTE DE PAULO DE PA                                                                                000001200809202209092022                                 
2370001300001T 0201692600000002699133009     000013850855100000001385085510102022000000000010200000044240                         001364310796000004                                        00000000000000000000000000000000000                 
2370001300002U 020000000000000000000000000000000000000000000000000000000000000000000000000000000000000000000000000000000000000000000000000809202200000000            000000000000000                              000                    00     
2370001300003T 0201692600000002699133009     000013850871100000001385087125102022000000000004950000044240                         001497585276000049                                        00000000000000000000000000000000000                 
2370001300004U 020000000000000000000000000000000000000000000000000000000000000000000000000000000000000000000000000000000000000000000000000809202200000000            000000000000000                              000                    00     
2370001300005T 0201692600000002699133009     00001385088P100000001385088P25112022000000000004950000044240                         001497585276000049                                        00000000000000000000000000000000000                 
2370001300006U 020000000000000000000000000000000000000000000000000000000000000000000000000000000000000000000000000000000000000000000000000809202200000000            000000000000000                              000                    00     
2370001300007T 0201692600000002699133009     000013850898100000001385089825122022000000000004950000044240                         001497585276000049                                        00000000000000000000000000000000000                 
2370001300008U 020000000000000000000000000000000000000000000000000000000000000000000000000000000000000000000000000000000000000000000000000809202200000000            000000000000000                              000                    00     
2370001300009T 0201692600000002699133009     000013850901100000001385090125012023000000000004950000044240                         001497585276000049                                        00000000000000000000000000000000000                 
2370001300010U 020000000000000000000000000000000000000000000000000000000000000000000000000000000000000000000000000000000000000000000000000809202200000000            000000000000000                              000                    00     
2370001300011T 0201692600000002699133009     00001385091P100000001385091P25022023000000000004950000044240                         001497585276000049                                        00000000000000000000000000000000000                 
2370001300012U 020000000000000000000000000000000000000000000000000000000000000000000000000000000000000000000000000000000000000000000000000809202200000000            000000000000000                              000                    00     
2370001300013T 0201692600000002699133009     000013850928100000001385092825032023000000000004950000044240                         001497585276000049                                        00000000000000000000000000000000000                 
2370001300014U 020000000000000000000000000000000000000000000000000000000000000000000000000000000000000000000000000000000000000000000000000809202200000000            000000000000000                              000                    00     
2370001300015T 0201692600000002699133009     000013850936100000001385093625042023000000000004950000044240                         001497585276000049                                        00000000000000000000000000000000000                 
2370001300016U 020000000000000000000000000000000000000000000000000000000000000000000000000000000000000000000000000000000000000000000000000809202200000000            000000000000000                              000                    00     
2370001300017T 0201692600000002699133009     000013850944100000001385094425052023000000000004950000044240                         001497585276000049                                        00000000000000000000000000000000000                 
2370001300018U 020000000000000000000000000000000000000000000000000000000000000000000000000000000000000000000000000000000000000000000000000809202200000000            000000000000000                              000                    00     
2370001300019T 0201692600000002699133009     000013850952100000001385095215102022000000000004950000044240                         001165817766000053                                        00000000000000000000000000000000000                 
2370001300020U 020000000000000000000000000000000000000000000000000000000000000000000000000000000000000000000000000000000000000000000000000809202200000000            000000000000000                              000                    00     
2370001300021T 0201692600000002699133009     000013850960100000001385096015112022000000000004950000044240                         001165817766000053                                        00000000000000000000000000000000000                 
2370001300022U 020000000000000000000000000000000000000000000000000000000000000000000000000000000000000000000000000000000000000000000000000809202200000000            000000000000000                              000                    00     
2370001300023T 0201692600000002699133009     000013850979100000001385097915122022000000000004950000044240                         001165817766000053                                        00000000000000000000000000000000000                 
2370001300024U 020000000000000000000000000000000000000000000000000000000000000000000000000000000000000000000000000000000000000000000000000809202200000000            000000000000000                              000                    00     
2370001300025T 0201692600000002699133009     000013850987100000001385098715012023000000000004950000044240                         001165817766000053                                        00000000000000000000000000000000000                 
2370001300026U 020000000000000000000000000000000000000000000000000000000000000000000000000000000000000000000000000000000000000000000000000809202200000000            000000000000000                              000                    00     
2370001300027T 0201692600000002699133009     000013850995100000001385099515022023000000000004950000044240                         001165817766000053                                        00000000000000000000000000000000000                 
2370001300028U 020000000000000000000000000000000000000000000000000000000000000000000000000000000000000000000000000000000000000000000000000809202200000000            000000000000000                              000                    00     
2370001300029T 0201692600000002699133009     000013851002100000001385100215032023000000000004950000044240                         001165817766000053                                        00000000000000000000000000000000000                 
2370001300030U 020000000000000000000000000000000000000000000000000000000000000000000000000000000000000000000000000000000000000000000000000809202200000000            000000000000000                              000                    00     
2370001300031T 0201692600000002699133009     000013851010100000001385101015042023000000000004950000044240                         001165817766000053                                        00000000000000000000000000000000000                 
2370001300032U 020000000000000000000000000000000000000000000000000000000000000000000000000000000000000000000000000000000000000000000000000809202200000000            000000000000000                              000                    00     
2370001300033T 0201692600000002699133009     000013851029100000001385102915052023000000000004950000044240                         001165817766000053                                        00000000000000000000000000000000000                 
2370001300034U 020000000000000000000000000000000000000000000000000000000000000000000000000000000000000000000000000000000000000000000000000809202200000000            000000000000000                              000                    00     
2370001300035T 0201692600000002699133009     000013851037100000001385103710102022000000000004950000046020                         001003046486000020                                        00000000000000000000000000000000000                 
2370001300036U 020000000000000000000000000000000000000000000000000000000000000000000000000000000000000000000000000000000000000000000000000809202200000000            000000000000000                              000                    00     
2370001300037T 0201692600000002699133009     000013851045100000001385104510112022000000000004950000046020                         001003046486000020                                        00000000000000000000000000000000000                 
2370001300038U 020000000000000000000000000000000000000000000000000000000000000000000000000000000000000000000000000000000000000000000000000809202200000000            000000000000000                              000                    00     
2370001300039T 0201692600000002699133009     000013851053100000001385105310122022000000000004950000046020                         001003046486000020                                        00000000000000000000000000000000000                 
2370001300040U 020000000000000000000000000000000000000000000000000000000000000000000000000000000000000000000000000000000000000000000000000809202200000000            000000000000000                              000                    00     
2370001300041T 0201692600000002699133009     000013851061100000001385106110012023000000000004950000046020                         001003046486000020                                        00000000000000000000000000000000000                 
2370001300042U 020000000000000000000000000000000000000000000000000000000000000000000000000000000000000000000000000000000000000000000000000809202200000000            000000000000000                              000                    00     
2370001300043T 0201692600000002699133009     00001385107P100000001385107P10022023000000000004950000046020                         001003046486000020                                        00000000000000000000000000000000000                 
2370001300044U 020000000000000000000000000000000000000000000000000000000000000000000000000000000000000000000000000000000000000000000000000809202200000000            000000000000000                              000                    00     
2370001300045T 0201692600000002699133009     000013851088100000001385108810032023000000000004950000046020                         001003046486000020                                        00000000000000000000000000000000000                 
2370001300046U 020000000000000000000000000000000000000000000000000000000000000000000000000000000000000000000000000000000000000000000000000809202200000000            000000000000000                              000                    00     
2370001300047T 0201692600000002699133009     000013851096100000001385109610042023000000000004950000046020                         001003046486000020                                        00000000000000000000000000000000000                 
2370001300048U 020000000000000000000000000000000000000000000000000000000000000000000000000000000000000000000000000000000000000000000000000809202200000000            000000000000000                              000                    00     
2370001300049T 0201692600000002699133009     00001385110P100000001385110P10052023000000000004950000046020                         001003046486000020                                        00000000000000000000000000000000000                 
2370001300050U 020000000000000000000000000000000000000000000000000000000000000000000000000000000000000000000000000000000000000000000000000809202200000000            000000000000000                              000                    00     
2370001300051T 0201692600000002699133009     000013851118100000001385111830092022000000000004950000044240                         001475481776000015                                        00000000000000000000000000000000000                 
2370001300052U 020000000000000000000000000000000000000000000000000000000000000000000000000000000000000000000000000000000000000000000000000809202200000000            000000000000000                              000                    00     
2370001300053T 0201692600000002699133009     000013851126100000001385112630102022000000000004950000044240                         001475481776000015                                        00000000000000000000000000000000000                 
2370001300054U 020000000000000000000000000000000000000000000000000000000000000000000000000000000000000000000000000000000000000000000000000809202200000000            000000000000000                              000                    00     
2370001300055T 0201692600000002699133009     000013851134100000001385113430112022000000000004950000044240                         001475481776000015                                        00000000000000000000000000000000000                 
2370001300056U 020000000000000000000000000000000000000000000000000000000000000000000000000000000000000000000000000000000000000000000000000809202200000000            000000000000000                              000                    00     
2370001300057T 0201692600000002699133009     000013851142100000001385114230122022000000000004950000044240                         001475481776000015                                        00000000000000000000000000000000000                 
2370001300058U 020000000000000000000000000000000000000000000000000000000000000000000000000000000000000000000000000000000000000000000000000809202200000000            000000000000000                              000                    00     
2370001300059T 0201692600000002699133009     000013851150100000001385115030012023000000000004950000044240                         001475481776000015                                        00000000000000000000000000000000000                 
2370001300060U 020000000000000000000000000000000000000000000000000000000000000000000000000000000000000000000000000000000000000000000000000809202200000000            000000000000000                              000                    00     
2370001300061T 0201692600000002699133009     000013851169100000001385116928022023000000000004950000044240                         001475481776000015                                        00000000000000000000000000000000000                 
2370001300062U 020000000000000000000000000000000000000000000000000000000000000000000000000000000000000000000000000000000000000000000000000809202200000000            000000000000000                              000                    00     
2370001300063T 0201692600000002699133009     000013851177100000001385117730032023000000000004950000044240                         001475481776000015                                        00000000000000000000000000000000000                 
2370001300064U 020000000000000000000000000000000000000000000000000000000000000000000000000000000000000000000000000000000000000000000000000809202200000000            000000000000000                              000                    00     
2370001300065T 0201692600000002699133009     000013851185100000001385118530042023000000000004950000044240                         001475481776000015                                        00000000000000000000000000000000000                 
2370001300066U 020000000000000000000000000000000000000000000000000000000000000000000000000000000000000000000000000000000000000000000000000809202200000000            000000000000000                              000                    00     
2370001300067T 0201692600000002699133009     000013851193100000001385119330052023000000000004950000044240                         001475481776000015                                        00000000000000000000000000000000000                 
2370001300068U 020000000000000000000000000000000000000000000000000000000000000000000000000000000000000000000000000000000000000000000000000809202200000000            000000000000000                              000                    00     
2370001300069T 0201692600000002699133009     000013851207100000001385120710102022000000000007950000044240                         001029355476000059                                        00000000000000000000000000000000000                 
2370001300070U 020000000000000000000000000000000000000000000000000000000000000000000000000000000000000000000000000000000000000000000000000809202200000000            000000000000000                              000                    00     
2370001300071T 0201692600000002699133009     000013851215100000001385121510112022000000000007950000044240                         001029355476000059                                        00000000000000000000000000000000000                 
2370001300072U 020000000000000000000000000000000000000000000000000000000000000000000000000000000000000000000000000000000000000000000000000809202200000000            000000000000000                              000                    00     
2370001300073T 0201692600000002699133009     000013851223100000001385122310122022000000000007950000044240                         001029355476000059                                        00000000000000000000000000000000000                 
2370001300074U 020000000000000000000000000000000000000000000000000000000000000000000000000000000000000000000000000000000000000000000000000809202200000000            000000000000000                              000                    00     
2370001300075T 0201692600000002699133009     000013851231100000001385123110012023000000000007950000044240                         001029355476000059                                        00000000000000000000000000000000000                 
2370001300076U 020000000000000000000000000000000000000000000000000000000000000000000000000000000000000000000000000000000000000000000000000809202200000000            000000000000000                              000                    00     
2370001300077T 0201692600000002699133009     00001385124P100000001385124P10022023000000000007950000044240                         001029355476000059                                        00000000000000000000000000000000000                 
2370001300078U 020000000000000000000000000000000000000000000000000000000000000000000000000000000000000000000000000000000000000000000000000809202200000000            000000000000000                              000                    00     
2370001300079T 0201692600000002699133009     000013851258100000001385125810032023000000000007950000044240                         001029355476000059                                        00000000000000000000000000000000000                 
2370001300080U 020000000000000000000000000000000000000000000000000000000000000000000000000000000000000000000000000000000000000000000000000809202200000000            000000000000000                              000                    00     
2370001300081T 0201692600000002699133009     000013851266100000001385126610042023000000000007950000044240                         001029355476000059                                        00000000000000000000000000000000000                 
2370001300082U 020000000000000000000000000000000000000000000000000000000000000000000000000000000000000000000000000000000000000000000000000809202200000000            000000000000000                              000                    00     
2370001300083T 0201692600000002699133009     000013851274100000001385127410052023000000000007950000044240                         001029355476000059                                        00000000000000000000000000000000000                 
2370001300084U 020000000000000000000000000000000000000000000000000000000000000000000000000000000000000000000000000000000000000000000000000809202200000000            000000000000000                              000                    00     
2370001300085T 0201692600000002699133009     000013851282100000001385128208102022000000000006450000044240                         001002169568000070                                        00000000000000000000000000000000000                 
2370001300086U 020000000000000000000000000000000000000000000000000000000000000000000000000000000000000000000000000000000000000000000000000809202200000000            000000000000000                              000                    00     
2370001300087T 0201692600000002699133009     000013851290100000001385129008112022000000000006450000044240                         001002169568000070                                        00000000000000000000000000000000000                 
2370001300088U 020000000000000000000000000000000000000000000000000000000000000000000000000000000000000000000000000000000000000000000000000809202200000000            000000000000000                              000                    00     
2370001300089T 0201692600000002699133009     000013851304100000001385130408122022000000000006450000044240                         001002169568000070                                        00000000000000000000000000000000000                 
2370001300090U 020000000000000000000000000000000000000000000000000000000000000000000000000000000000000000000000000000000000000000000000000809202200000000            000000000000000                              000                    00     
2370001300091T 0201692600000002699133009     000013851312100000001385131208012023000000000006450000044240                         001002169568000070                                        00000000000000000000000000000000000                 
2370001300092U 020000000000000000000000000000000000000000000000000000000000000000000000000000000000000000000000000000000000000000000000000809202200000000            000000000000000                              000                    00     
2370001300093T 0201692600000002699133009     000013851320100000001385132008022023000000000006450000044240                         001002169568000070                                        00000000000000000000000000000000000                 
2370001300094U 020000000000000000000000000000000000000000000000000000000000000000000000000000000000000000000000000000000000000000000000000809202200000000            000000000000000                              000                    00     
2370001300095T 0201692600000002699133009     000013851339100000001385133908032023000000000006450000044240                         001002169568000070                                        00000000000000000000000000000000000                 
2370001300096U 020000000000000000000000000000000000000000000000000000000000000000000000000000000000000000000000000000000000000000000000000809202200000000            000000000000000                              000                    00     
2370001300097T 0201692600000002699133009     000013851347100000001385134708042023000000000006450000044240                         001002169568000070                                        00000000000000000000000000000000000                 
2370001300098U 020000000000000000000000000000000000000000000000000000000000000000000000000000000000000000000000000000000000000000000000000809202200000000            000000000000000                              000                    00     
2370001300099T 0201692600000002699133009     000013851355100000001385135508052023000000000006450000044240                         001002169568000070                                        00000000000000000000000000000000000                 
2370001300100U 020000000000000000000000000000000000000000000000000000000000000000000000000000000000000000000000000000000000000000000000000809202200000000            000000000000000                              000                    00     
2370001300101T 0201692600000002699133009     000013851363100000001385136310102022000000000004950000044240                         001008435246000093                                        00000000000000000000000000000000000                 
2370001300102U 020000000000000000000000000000000000000000000000000000000000000000000000000000000000000000000000000000000000000000000000000809202200000000            000000000000000                              000                    00     
2370001300103T 0201692600000002699133009     000013851371100000001385137110112022000000000004950000044240                         001008435246000093                                        00000000000000000000000000000000000                 
2370001300104U 020000000000000000000000000000000000000000000000000000000000000000000000000000000000000000000000000000000000000000000000000809202200000000            000000000000000                              000                    00     
2370001300105T 0201692600000002699133009     00001385138P100000001385138P10122022000000000004950000044240                         001008435246000093                                        00000000000000000000000000000000000                 
2370001300106U 020000000000000000000000000000000000000000000000000000000000000000000000000000000000000000000000000000000000000000000000000809202200000000            000000000000000                              000                    00     
2370001300107T 0201692600000002699133009     000013851398100000001385139810012023000000000004950000044240                         001008435246000093                                        00000000000000000000000000000000000                 
2370001300108U 020000000000000000000000000000000000000000000000000000000000000000000000000000000000000000000000000000000000000000000000000809202200000000            000000000000000                              000                    00     
2370001300109T 0201692600000002699133009     000013851401100000001385140110022023000000000004950000044240                         001008435246000093                                        00000000000000000000000000000000000                 
2370001300110U 020000000000000000000000000000000000000000000000000000000000000000000000000000000000000000000000000000000000000000000000000809202200000000            000000000000000                              000                    00     
2370001300111T 0201692600000002699133009     00001385141P100000001385141P10032023000000000004950000044240                         001008435246000093                                        00000000000000000000000000000000000                 
2370001300112U 020000000000000000000000000000000000000000000000000000000000000000000000000000000000000000000000000000000000000000000000000809202200000000            000000000000000                              000                    00     
2370001300113T 0201692600000002699133009     000013851428100000001385142810042023000000000004950000044240                         001008435246000093                                        00000000000000000000000000000000000                 
2370001300114U 020000000000000000000000000000000000000000000000000000000000000000000000000000000000000000000000000000000000000000000000000809202200000000            000000000000000                              000                    00     
2370001300115T 0201692600000002699133009     000013851436100000001385143610052023000000000004950000044240                         001008435246000093                                        00000000000000000000000000000000000                 
2370001300116U 020000000000000000000000000000000000000000000000000000000000000000000000000000000000000000000000000000000000000000000000000809202200000000            000000000000000                              000                    00     
2370001300117T 0201692600000002699133009     000013851444100000001385144410102022000000000004950000044240                         001445315406000020                                        0000000000000000000000000A400000000                 
2370001300118U 020000000000000000000000000000000000000000000000000000000000000000000000000000000000000000000000000000000000000000000000000809202200000000            000000000000000                              000                    00     
2370001300119T 0201692600000002699133009     000013851452100000001385145210112022000000000004950000044240                         001445315406000020                                        0000000000000000000000000A400000000                 
2370001300120U 020000000000000000000000000000000000000000000000000000000000000000000000000000000000000000000000000000000000000000000000000809202200000000            000000000000000                              000                    00     
2370001300121T 0201692600000002699133009     000013851460100000001385146010122022000000000004950000044240                         001445315406000020                                        0000000000000000000000000A400000000                 
2370001300122U 020000000000000000000000000000000000000000000000000000000000000000000000000000000000000000000000000000000000000000000000000809202200000000            000000000000000                              000                    00     
2370001300123T 0201692600000002699133009     000013851479100000001385147910012023000000000004950000044240                         001445315406000020                                        0000000000000000000000000A400000000                 
2370001300124U 020000000000000000000000000000000000000000000000000000000000000000000000000000000000000000000000000000000000000000000000000809202200000000            000000000000000                              000                    00     
2370001300125T 0201692600000002699133009     000013851487100000001385148710022023000000000004950000044240                         001445315406000020                                        0000000000000000000000000A400000000                 
2370001300126U 020000000000000000000000000000000000000000000000000000000000000000000000000000000000000000000000000000000000000000000000000809202200000000            000000000000000                              000                    00     
2370001300127T 0201692600000002699133009     000013851495100000001385149510032023000000000004950000044240                         001445315406000020                                        0000000000000000000000000A400000000                 
2370001300128U 020000000000000000000000000000000000000000000000000000000000000000000000000000000000000000000000000000000000000000000000000809202200000000            000000000000000                              000                    00     
2370001300129T 0201692600000002699133009     000013851509100000001385150910042023000000000004950000044240                         001445315406000020                                        0000000000000000000000000A400000000                 
2370001300130U 020000000000000000000000000000000000000000000000000000000000000000000000000000000000000000000000000000000000000000000000000809202200000000            000000000000000                              000                    00     
2370001300131T 0201692600000002699133009     000013851517100000001385151710052023000000000004950000044240                         001445315406000020                                        0000000000000000000000000A400000000                 
2370001300132U 020000000000000000000000000000000000000000000000000000000000000000000000000000000000000000000000000000000000000000000000000809202200000000            000000000000000                              000                    00     
2370001300133T 0201692600000002699133009     000013851525100000001385152510102022000000000004950000044240                         001949861266000087                                        00000000000000000000000000000000000                 
2370001300134U 020000000000000000000000000000000000000000000000000000000000000000000000000000000000000000000000000000000000000000000000000809202200000000            000000000000000                              000                    00     
2370001300135T 0201692600000002699133009     000013851533100000001385153310112022000000000004950000044240                         001949861266000087                                        00000000000000000000000000000000000                 
2370001300136U 020000000000000000000000000000000000000000000000000000000000000000000000000000000000000000000000000000000000000000000000000809202200000000            000000000000000                              000                    00     
2370001300137T 0201692600000002699133009     000013851541100000001385154110122022000000000004950000044240                         001949861266000087                                        00000000000000000000000000000000000                 
2370001300138U 020000000000000000000000000000000000000000000000000000000000000000000000000000000000000000000000000000000000000000000000000809202200000000            000000000000000                              000                    00     
2370001300139T 0201692600000002699133009     00001385155P100000001385155P10012023000000000004950000044240                         001949861266000087                                        00000000000000000000000000000000000                 
2370001300140U 020000000000000000000000000000000000000000000000000000000000000000000000000000000000000000000000000000000000000000000000000809202200000000            000000000000000                              000                    00     
2370001300141T 0201692600000002699133009     000013851568100000001385156810022023000000000004950000044240                         001949861266000087                                        00000000000000000000000000000000000                 
2370001300142U 020000000000000000000000000000000000000000000000000000000000000000000000000000000000000000000000000000000000000000000000000809202200000000            000000000000000                              000                    00     
2370001300143T 0201692600000002699133009     000013851576100000001385157610032023000000000004950000044240                         001949861266000087                                        00000000000000000000000000000000000                 
2370001300144U 020000000000000000000000000000000000000000000000000000000000000000000000000000000000000000000000000000000000000000000000000809202200000000            000000000000000                              000                    00     
2370001300145T 0201692600000002699133009     000013851584100000001385158410042023000000000004950000044240                         001949861266000087                                        00000000000000000000000000000000000                 
2370001300146U 020000000000000000000000000000000000000000000000000000000000000000000000000000000000000000000000000000000000000000000000000809202200000000            000000000000000                              000                    00     
2370001300147T 0201692600000002699133009     000013851592100000001385159210052023000000000004950000044240                         001949861266000087                                        00000000000000000000000000000000000                 
2370001300148U 020000000000000000000000000000000000000000000000000000000000000000000000000000000000000000000000000000000000000000000000000809202200000000            000000000000000                              000                    00     
2370001300149T 0201692600000002699133009     000013851606100000001385160615102022000000000004950000044240                         001750097146000004                                        00000000000000000000000000000000000                 
2370001300150U 020000000000000000000000000000000000000000000000000000000000000000000000000000000000000000000000000000000000000000000000000809202200000000            000000000000000                              000                    00     
2370001300151T 0201692600000002699133009     000013851614100000001385161415112022000000000004950000044240                         001750097146000004                                        00000000000000000000000000000000000                 
2370001300152U 020000000000000000000000000000000000000000000000000000000000000000000000000000000000000000000000000000000000000000000000000809202200000000            000000000000000                              000                    00     
2370001300153T 0201692600000002699133009     000013851622100000001385162215122022000000000004950000044240                         001750097146000004                                        00000000000000000000000000000000000                 
2370001300154U 020000000000000000000000000000000000000000000000000000000000000000000000000000000000000000000000000000000000000000000000000809202200000000            000000000000000                              000                    00     
2370001300155T 0201692600000002699133009     000013851630100000001385163015012023000000000004950000044240                         001750097146000004                                        00000000000000000000000000000000000                 
2370001300156U 020000000000000000000000000000000000000000000000000000000000000000000000000000000000000000000000000000000000000000000000000809202200000000            000000000000000                              000                    00     
2370001300157T 0201692600000002699133009     000013851649100000001385164915022023000000000004950000044240                         001750097146000004                                        00000000000000000000000000000000000                 
2370001300158U 020000000000000000000000000000000000000000000000000000000000000000000000000000000000000000000000000000000000000000000000000809202200000000            000000000000000                              000                    00     
2370001300159T 0201692600000002699133009     000013851657100000001385165715032023000000000004950000044240                         001750097146000004                                        00000000000000000000000000000000000                 
2370001300160U 020000000000000000000000000000000000000000000000000000000000000000000000000000000000000000000000000000000000000000000000000809202200000000            000000000000000                              000                    00     
2370001300161T 0201692600000002699133009     000013851665100000001385166515042023000000000004950000044240                         001750097146000004                                        00000000000000000000000000000000000                 
2370001300162U 020000000000000000000000000000000000000000000000000000000000000000000000000000000000000000000000000000000000000000000000000809202200000000            000000000000000                              000                    00     
2370001300163T 0201692600000002699133009     000013851673100000001385167315052023000000000004950000044240                         001750097146000004                                        00000000000000000000000000000000000                 
2370001300164U 020000000000000000000000000000000000000000000000000000000000000000000000000000000000000000000000000000000000000000000000000809202200000000            000000000000000                              000                    00     
2370001300165T 0201692600000002699133009     000013851681100000001385168110102022000000000004950000044240                         001441254296000034                                        0000000000000000000000000A400000000                 
2370001300166U 020000000000000000000000000000000000000000000000000000000000000000000000000000000000000000000000000000000000000000000000000809202200000000            000000000000000                              000                    00     
2370001300167T 0201692600000002699133009     00001385169P100000001385169P10112022000000000004950000044240                         001441254296000034                                        0000000000000000000000000A400000000                 
2370001300168U 020000000000000000000000000000000000000000000000000000000000000000000000000000000000000000000000000000000000000000000000000809202200000000            000000000000000                              000                    00     
2370001300169T 0201692600000002699133009     000013851703100000001385170310122022000000000004950000044240                         001441254296000034                                        0000000000000000000000000A400000000                 
2370001300170U 020000000000000000000000000000000000000000000000000000000000000000000000000000000000000000000000000000000000000000000000000809202200000000            000000000000000                              000                    00     
2370001300171T 0201692600000002699133009     000013851711100000001385171110012023000000000004950000044240                         001441254296000034                                        0000000000000000000000000A400000000                 
2370001300172U 020000000000000000000000000000000000000000000000000000000000000000000000000000000000000000000000000000000000000000000000000809202200000000            000000000000000                              000                    00     
2370001300173T 0201692600000002699133009     00001385172P100000001385172P10022023000000000004950000044240                         001441254296000034                                        0000000000000000000000000A400000000                 
2370001300174U 020000000000000000000000000000000000000000000000000000000000000000000000000000000000000000000000000000000000000000000000000809202200000000            000000000000000                              000                    00     
2370001300175T 0201692600000002699133009     000013851738100000001385173810032023000000000004950000044240                         001441254296000034                                        0000000000000000000000000A400000000                 
2370001300176U 020000000000000000000000000000000000000000000000000000000000000000000000000000000000000000000000000000000000000000000000000809202200000000            000000000000000                              000                    00     
2370001300177T 0201692600000002699133009     000013851746100000001385174610042023000000000004950000044240                         001441254296000034                                        0000000000000000000000000A400000000                 
2370001300178U 020000000000000000000000000000000000000000000000000000000000000000000000000000000000000000000000000000000000000000000000000809202200000000            000000000000000                              000                    00     
2370001300179T 0201692600000002699133009     000013851754100000001385175410052023000000000004950000044240                         001441254296000034                                        0000000000000000000000000A400000000                 
2370001300180U 020000000000000000000000000000000000000000000000000000000000000000000000000000000000000000000000000000000000000000000000000809202200000000            000000000000000                              000                    00     
2370001300181T 0201692600000002699133009     000013852076100000001385207610112022000000000010200000044240                         001498655526000004                                        00000000000000000000000000000000000                 
2370001300182U 020000000000000000000000000000000000000000000000000000000000000000000000000000000000000000000000000000000000000000000000000809202200000000            000000000000000                              000                    00     
2370001300183T 0201692600000002699133009     000013852084100000001385208410112022000000000010200000044240                         001213508256000020                                        00000000000000000000000000000000000                 
2370001300184U 020000000000000000000000000000000000000000000000000000000000000000000000000000000000000000000000000000000000000000000000000809202200000000            000000000000000                              000                    00     
2370001300185T 0201692600000002699133009     000013852092100000001385209210112022000000000010200000044240                         001397781426000053                                        00000000000000000000000000000000000                 
2370001300186U 020000000000000000000000000000000000000000000000000000000000000000000000000000000000000000000000000000000000000000000000000809202200000000            000000000000000                              000                    00     
2370001300187T 0201692600000002699133009     000013852106100000001385210610112022000000000010200000044240                         001648381966000087                                        00000000000000000000000000000000000                 
2370001300188U 020000000000000000000000000000000000000000000000000000000000000000000000000000000000000000000000000000000000000000000000000809202200000000            000000000000000                              000                    00     
2370001300189T 0201692600000002699133009     000013852114100000001385211410112022000000000010200000044240                         001475724506000087                                        00000000000000000000000000000000000                 
2370001300190U 020000000000000000000000000000000000000000000000000000000000000000000000000000000000000000000000000000000000000000000000000809202200000000            000000000000000                              000                    00     
2370001300191T 0201692600000002699133009     000013852122100000001385212210112022000000000010200000044240                         001258302446000091                                        00000000000000000000000000000000000                 
2370001300192U 020000000000000000000000000000000000000000000000000000000000000000000000000000000000000000000000000000000000000000000000000809202200000000            000000000000000                              000                    00     
2370001300193T 0201692600000002699133009     000013852130100000001385213010112022000000000010200000044240                         001046990188000082                                        00000000000000000000000000000000000                 
2370001300194U 020000000000000000000000000000000000000000000000000000000000000000000000000000000000000000000000000000000000000000000000000809202200000000            000000000000000                              000                    00     
2370001300195T 0201692600000002699133009     000013852149100000001385214910112022000000000010200000044240                         001362846706000030                                        00000000000000000000000000000000000                 
2370001300196U 020000000000000000000000000000000000000000000000000000000000000000000000000000000000000000000000000000000000000000000000000809202200000000            000000000000000                              000                    00     
2370001300197T 0201692600000002699133009     000013852157100000001385215710112022000000000010200000044240                         001774608986000000                                        00000000000000000000000000000000000                 
2370001300198U 020000000000000000000000000000000000000000000000000000000000000000000000000000000000000000000000000000000000000000000000000809202200000000            000000000000000                              000                    00     
2370001300199T 0201692600000002699133009     000013852165100000001385216510112022000000000010200000044240                         001214691486000068                                        00000000000000000000000000000000000                 
2370001300200U 020000000000000000000000000000000000000000000000000000000000000000000000000000000000000000000000000000000000000000000000000809202200000000            000000000000000                              000                    00     
2370001300201T 0201692600000002699133009     000013852173100000001385217310112022000000000010200000044240                         001995390476000068                                        00000000000000000000000000000000000                 
2370001300202U 020000000000000000000000000000000000000000000000000000000000000000000000000000000000000000000000000000000000000000000000000809202200000000            000000000000000                              000                    00     
2370001300203T 0201692600000002699133009     000013852181100000001385218110112022000000000010200000044240                         001202350116000049                                        0000000000000000000000000A400000000                 
2370001300204U 020000000000000000000000000000000000000000000000000000000000000000000000000000000000000000000000000000000000000000000000000809202200000000            000000000000000                              000                    00     
2370001300205T 0201692600000002699133009     00001385219P100000001385219P10112022000000000010200000044240                         001547493366000053                                        00000000000000000000000000000000000                 
2370001300206U 020000000000000000000000000000000000000000000000000000000000000000000000000000000000000000000000000000000000000000000000000809202200000000            000000000000000                              000                    00     
2370001300207T 0201692600000002699133009     000013852203100000001385220310112022000000000010200000044240                         001877124236000087                                        00000000000000000000000000000000000                 
2370001300208U 020000000000000000000000000000000000000000000000000000000000000000000000000000000000000000000000000000000000000000000000000809202200000000            000000000000000                              000                    00     
2370001300209T 0201692600000002699133009     000013852211100000001385221110112022000000000010200000044240                         001432999896000034                                        00000000000000000000000000000000000                 
2370001300210U 020000000000000000000000000000000000000000000000000000000000000000000000000000000000000000000000000000000000000000000000000809202200000000            000000000000000                              000                    00     
2370001300211T 0201692600000002699133009     00001385222P100000001385222P10112022000000000010200000044240                         001599330466000091                                        00000000000000000000000000000000000                 
2370001300212U 020000000000000000000000000000000000000000000000000000000000000000000000000000000000000000000000000000000000000000000000000809202200000000            000000000000000                              000                    00     
2370001300213T 0201692600000002699133009     000013852238100000001385223810112022000000000010200000044240                         001618005206000097                                        00000000000000000000000000000000000                 
2370001300214U 020000000000000000000000000000000000000000000000000000000000000000000000000000000000000000000000000000000000000000000000000809202200000000            000000000000000                              000                    00     
2370001300215T 0201692600000002699133009     000013852246100000001385224610112022000000000010200000044240                         001362837706000049                                        00000000000000000000000000000000000                 
2370001300216U 020000000000000000000000000000000000000000000000000000000000000000000000000000000000000000000000000000000000000000000000000809202200000000            000000000000000                              000                    00     
2370001300217T 0201692600000002699133009     000013852254100000001385225410112022000000000010200000044240                         001170031646000004                                        00000000000000000000000000000000000                 
2370001300218U 020000000000000000000000000000000000000000000000000000000000000000000000000000000000000000000000000000000000000000000000000809202200000000            000000000000000                              000                    00     
2370001300219T 0201692600000002699133009     000013852262100000001385226210112022000000000010200000044240                         001148701006000006                                        00000000000000000000000000000000000                 
2370001300220U 020000000000000000000000000000000000000000000000000000000000000000000000000000000000000000000000000000000000000000000000000809202200000000            000000000000000                              000                    00     
2370001300221T 0201692600000002699133009     000013852270100000001385227010112022000000000010200000044240                         001165831596000000                                        00000000000000000000000000000000000                 
2370001300222U 020000000000000000000000000000000000000000000000000000000000000000000000000000000000000000000000000000000000000000000000000809202200000000            000000000000000                              000                    00     
2370001300223T 0201692600000002699133009     000013852289100000001385228910112022000000000010200000044240                         001909355786000068                                        00000000000000000000000000000000000                 
2370001300224U 020000000000000000000000000000000000000000000000000000000000000000000000000000000000000000000000000000000000000000000000000809202200000000            000000000000000                              000                    00     
2370001300225T 0201692600000002699133009     000013852297100000001385229710112022000000000010200000044240                         001930497496000087                                        00000000000000000000000000000000000                 
2370001300226U 020000000000000000000000000000000000000000000000000000000000000000000000000000000000000000000000000000000000000000000000000809202200000000            000000000000000                              000                    00     
2370001300227T 0201692600000002699133009     000013852300100000001385230010112022000000000010200000044240                         001886977466000004                                        00000000000000000000000000000000000                 
2370001300228U 020000000000000000000000000000000000000000000000000000000000000000000000000000000000000000000000000000000000000000000000000809202200000000            000000000000000                              000                    00     
2370001300229T 0201692600000002699133009     000013852319100000001385231910112022000000000010200000044240                         001441855886000015                                        00000000000000000000000000000000000                 
2370001300230U 020000000000000000000000000000000000000000000000000000000000000000000000000000000000000000000000000000000000000000000000000809202200000000            000000000000000                              000                    00     
2370001300231T 0201692600000002699133009     000013852327100000001385232710112022000000000010200000044240                         001000883606000001                                        00000000000000000000000000000000000                 
2370001300232U 020000000000000000000000000000000000000000000000000000000000000000000000000000000000000000000000000000000000000000000000000809202200000000            000000000000000                              000                    00     
2370001300233T 0201692600000002699133009     000013852335100000001385233510112022000000000010200000044240                         001008415846000080                                        00000000000000000000000000000000000                 
2370001300234U 020000000000000000000000000000000000000000000000000000000000000000000000000000000000000000000000000000000000000000000000000809202200000000            000000000000000                              000                    00     
2370001300235T 0201692600000002699133009     000013852343100000001385234310112022000000000010200000044240                         001500254816000049                                        00000000000000000000000000000000000                 
2370001300236U 020000000000000000000000000000000000000000000000000000000000000000000000000000000000000000000000000000000000000000000000000809202200000000            000000000000000                              000                    00     
2370001300237T 0201692600000002699133009     000013852351100000001385235110112022000000000010200000044240                         001362854126000034                                        00000000000000000000000000000000000                 
2370001300238U 020000000000000000000000000000000000000000000000000000000000000000000000000000000000000000000000000000000000000000000000000809202200000000            000000000000000                              000                    00     
2370001300239T 0201692600000002699133009     00001385236P100000001385236P10112022000000000010200000044240                         001529827006000097                                        00000000000000000000000000000000000                 
2370001300240U 020000000000000000000000000000000000000000000000000000000000000000000000000000000000000000000000000000000000000000000000000809202200000000            000000000000000                              000                    00     
2370001300241T 0201692600000002699133009     000013852378100000001385237810112022000000000010200000044240                         001484174086000049                                        00000000000000000000000000000000000                 
2370001300242U 020000000000000000000000000000000000000000000000000000000000000000000000000000000000000000000000000000000000000000000000000809202200000000            000000000000000                              000                    00     
2370001300243T 0201692600000002699133009     000013852386100000001385238610112022000000000010200000044240                         001184675126000087                                        00000000000000000000000000000000000                 
2370001300244U 020000000000000000000000000000000000000000000000000000000000000000000000000000000000000000000000000000000000000000000000000809202200000000            000000000000000                              000                    00     
2370001300245T 0201692600000002699133009     000013852394100000001385239410112022000000000010200000044240                         001044521216000008                                        00000000000000000000000000000000000                 
2370001300246U 020000000000000000000000000000000000000000000000000000000000000000000000000000000000000000000000000000000000000000000000000809202200000000            000000000000000                              000                    00     
2370001300247T 0201692600000002699133009     000013852408100000001385240810112022000000000010200000044240                         001364550596000020                                        0000000000000000000000000A400000000                 
2370001300248U 020000000000000000000000000000000000000000000000000000000000000000000000000000000000000000000000000000000000000000000000000809202200000000            000000000000000                              000                    00     
2370001300249T 0201692600000002699133009     000013852416100000001385241610112022000000000010200000044240                         001930730206000059                                        00000000000000000000000000000000000                 
2370001300250U 020000000000000000000000000000000000000000000000000000000000000000000000000000000000000000000000000000000000000000000000000809202200000000            000000000000000                              000                    00     
2370001300251T 0201692600000002699133009     000013852424100000001385242410112022000000000010200000044240                         001858695206000006                                        00000000000000000000000000000000000                 
2370001300252U 020000000000000000000000000000000000000000000000000000000000000000000000000000000000000000000000000000000000000000000000000809202200000000            000000000000000                              000                    00     
2370001300253T 0201692600000002699133009     000013852432100000001385243210112022000000000010200000044240                         001520874506000025                                        00000000000000000000000000000000000                 
2370001300254U 020000000000000000000000000000000000000000000000000000000000000000000000000000000000000000000000000000000000000000000000000809202200000000            000000000000000                              000                    00     
2370001300255T 0201692600000002699133009     000013852440100000001385244010112022000000000010200000044240                         001963649206000091                                        00000000000000000000000000000000000                 
2370001300256U 020000000000000000000000000000000000000000000000000000000000000000000000000000000000000000000000000000000000000000000000000809202200000000            000000000000000                              000                    00     
2370001300257T 0201692600000002699133009     000013852459100000001385245910112022000000000010200000044240                         001749899016000049                                        00000000000000000000000000000000000                 
2370001300258U 020000000000000000000000000000000000000000000000000000000000000000000000000000000000000000000000000000000000000000000000000809202200000000            000000000000000                              000                    00     
2370001300259T 0201692600000002699133009     000013852467100000001385246710112022000000000010200000044240                         001519215376000004                                        00000000000000000000000000000000000                 
2370001300260U 020000000000000000000000000000000000000000000000000000000000000000000000000000000000000000000000000000000000000000000000000809202200000000            000000000000000                              000                    00     
2370001300261T 0201692600000002699133009     000013852475100000001385247510112022000000000010200000044240                         001005934576000041                                        00000000000000000000000000000000000                 
2370001300262U 020000000000000000000000000000000000000000000000000000000000000000000000000000000000000000000000000000000000000000000000000809202200000000            000000000000000                              000                    00     
2370001300263T 0201692600000002699133009     000013852483100000001385248310112022000000000010200000044240                         001075168026000054                                        0000000000000000000000000A400000000                 
2370001300264U 020000000000000000000000000000000000000000000000000000000000000000000000000000000000000000000000000000000000000000000000000809202200000000            000000000000000                              000                    00     
2370001300265T 0201692600000002699133009     000013852491100000001385249110112022000000000010200000044240                         001668049226000020                                        00000000000000000000000000000000000                 
2370001300266U 020000000000000000000000000000000000000000000000000000000000000000000000000000000000000000000000000000000000000000000000000809202200000000            000000000000000                              000                    00     
2370001300267T 0201692600000002699133009     000013852505100000001385250510112022000000000010200000044240                         001000933536000069                                        00000000000000000000000000000000000                 
2370001300268U 020000000000000000000000000000000000000000000000000000000000000000000000000000000000000000000000000000000000000000000000000809202200000000            000000000000000                              000                    00     
2370001300269T 0201692600000002699133009     000013852513100000001385251310112022000000000010200000044240                         001148690476000091                                        00000000000000000000000000000000000                 
2370001300270U 020000000000000000000000000000000000000000000000000000000000000000000000000000000000000000000000000000000000000000000000000809202200000000            000000000000000                              000                    00     
2370001300271T 0201692600000002699133009     000013852521100000001385252110112022000000000010200000044240                         001718504306000091                                        00000000000000000000000000000000000                 
2370001300272U 020000000000000000000000000000000000000000000000000000000000000000000000000000000000000000000000000000000000000000000000000809202200000000            000000000000000                              000                    00     
2370001300273T 0201692600000002699133009     00001385253P100000001385253P10112022000000000010200000044240                         001272310386000020                                        00000000000000000000000000000000000                 
2370001300274U 020000000000000000000000000000000000000000000000000000000000000000000000000000000000000000000000000000000000000000000000000809202200000000            000000000000000                              000                    00     
2370001300275T 0201692600000002699133009     000013852548100000001385254810112022000000000010200000044240                         001930517356000004                                        00000000000000000000000000000000000                 
2370001300276U 020000000000000000000000000000000000000000000000000000000000000000000000000000000000000000000000000000000000000000000000000809202200000000            000000000000000                              000                    00     
2370001300277T 0201692600000002699133009     000013852556100000001385255610112022000000000010200000044240                         001616876266000034                                        00000000000000000000000000000000000                 
2370001300278U 020000000000000000000000000000000000000000000000000000000000000000000000000000000000000000000000000000000000000000000000000809202200000000            000000000000000                              000                    00     
2370001300279T 0201692600000002699133009     000013852564100000001385256410112022000000000010200000044240                         001031552466000093                                        0000000000000000000000000A400000000                 
2370001300280U 020000000000000000000000000000000000000000000000000000000000000000000000000000000000000000000000000000000000000000000000000809202200000000            000000000000000                              000                    00     
2370001300281T 0201692600000002699133009     000013852572100000001385257210112022000000000010200000044240                         001397312606000025                                        00000000000000000000000000000000000                 
2370001300282U 020000000000000000000000000000000000000000000000000000000000000000000000000000000000000000000000000000000000000000000000000809202200000000            000000000000000                              000                    00     
2370001300283T 0201692600000002699133009     000013852580100000001385258010112022000000000010200000044240                         001667601006000020                                        00000000000000000000000000000000000                 
2370001300284U 020000000000000000000000000000000000000000000000000000000000000000000000000000000000000000000000000000000000000000000000000809202200000000            000000000000000                              000                    00     
2370001300285T 0201692600000002699133009     000013852599100000001385259910112022000000000010200000044240                         001620709246000053                                        00000000000000000000000000000000000                 
2370001300286U 020000000000000000000000000000000000000000000000000000000000000000000000000000000000000000000000000000000000000000000000000809202200000000            000000000000000                              000                    00     
2370001300287T 0201692600000002699133009     000013852602100000001385260210112022000000000010200000044240                         001040239986000021                                        00000000000000000000000000000000000                 
2370001300288U 020000000000000000000000000000000000000000000000000000000000000000000000000000000000000000000000000000000000000000000000000809202200000000            000000000000000                              000                    00     
2370001300289T 0201692600000002699133009     000013852610100000001385261010112022000000000010200000044240                         001034218316000088                                        00000000000000000000000000000000000                 
2370001300290U 020000000000000000000000000000000000000000000000000000000000000000000000000000000000000000000000000000000000000000000000000809202200000000            000000000000000                              000                    00     
2370001300291T 0201692600000002699133009     000013852629100000001385262910112022000000000010200000044240                         001128022358000085                                        00000000000000000000000000000000000                 
2370001300292U 020000000000000000000000000000000000000000000000000000000000000000000000000000000000000000000000000000000000000000000000000809202200000000            000000000000000                              000                    00     
2370001300293T 0201692600000002699133009     000013852637100000001385263710112022000000000010200000044240                         001065137916000042                                        00000000000000000000000000000000000                 
2370001300294U 020000000000000000000000000000000000000000000000000000000000000000000000000000000000000000000000000000000000000000000000000809202200000000            000000000000000                              000                    00     
2370001300295T 0201692600000002699133009     000013852645100000001385264510112022000000000010200000044240                         001858177676000000                                        00000000000000000000000000000000000                 
2370001300296U 020000000000000000000000000000000000000000000000000000000000000000000000000000000000000000000000000000000000000000000000000809202200000000            000000000000000                              000                    00     
2370001300297T 0201692600000002699133009     000013852653100000001385265310112022000000000010200000044240                         001433005026000091                                        00000000000000000000000000000000000                 
2370001300298U 020000000000000000000000000000000000000000000000000000000000000000000000000000000000000000000000000000000000000000000000000809202200000000            000000000000000                              000                    00     
2370001300299T 0201692600000002699133009     000013852661100000001385266110112022000000000010200000044240                         001553739926000015                                        00000000000000000000000000000000000                 
2370001300300U 020000000000000000000000000000000000000000000000000000000000000000000000000000000000000000000000000000000000000000000000000809202200000000            000000000000000                              000                    00     
2370001300301T 0201692600000002699133009     00001385267P100000001385267P10112022000000000010200000044240                         001439505826000049                                        00000000000000000000000000000000000                 
2370001300302U 020000000000000000000000000000000000000000000000000000000000000000000000000000000000000000000000000000000000000000000000000809202200000000            000000000000000                              000                    00     
2370001300303T 0201692600000002699133009     000013852688100000001385268810112022000000000010200000044240                         001616864686000087                                        0000000000000000000000000A400000000                 
2370001300304U 020000000000000000000000000000000000000000000000000000000000000000000000000000000000000000000000000000000000000000000000000809202200000000            000000000000000                              000                    00     
2370001300305T 0201692600000002699133009     000013852696100000001385269610112022000000000010200000044240                         001887277266000049                                        00000000000000000000000000000000000                 
2370001300306U 020000000000000000000000000000000000000000000000000000000000000000000000000000000000000000000000000000000000000000000000000809202200000000            000000000000000                              000                    00     
2370001300307T 0201692600000002699133009     00001385270P100000001385270P10112022000000000010200000044240                         001647901776000053                                        00000000000000000000000000000000000                 
2370001300308U 020000000000000000000000000000000000000000000000000000000000000000000000000000000000000000000000000000000000000000000000000809202200000000            000000000000000                              000                    00     
2370001300309T 0201692600000002699133009     000013852718100000001385271810112022000000000010200000044240                         001774623006000072                                        00000000000000000000000000000000000                 
2370001300310U 020000000000000000000000000000000000000000000000000000000000000000000000000000000000000000000000000000000000000000000000000809202200000000            000000000000000                              000                    00     
2370001300311T 0201692600000002699133009     000013852726100000001385272610112022000000000010200000044240                         001015589496000007                                        00000000000000000000000000000000000                 
2370001300312U 020000000000000000000000000000000000000000000000000000000000000000000000000000000000000000000000000000000000000000000000000809202200000000            000000000000000                              000                    00     
2370001300313T 0201692600000002699133009     000013852734100000001385273410112022000000000010200000044240                         001099952446000016                                        00000000000000000000000000000000000                 
2370001300314U 020000000000000000000000000000000000000000000000000000000000000000000000000000000000000000000000000000000000000000000000000809202200000000            000000000000000                              000                    00     
2370001300315T 0201692600000002699133009     000013852742100000001385274210112022000000000010200000044240                         001037206886000031                                        00000000000000000000000000000000000                 
2370001300316U 020000000000000000000000000000000000000000000000000000000000000000000000000000000000000000000000000000000000000000000000000809202200000000            000000000000000                              000                    00     
2370001300317T 0201692600000002699133009     000013852750100000001385275010112022000000000010200000044240                         001358359906000034                                        0000000000000000000000000A400000000                 
2370001300318U 020000000000000000000000000000000000000000000000000000000000000000000000000000000000000000000000000000000000000000000000000809202200000000            000000000000000                              000                    00     
2370001300319T 0201692600000002699133009     000013852769100000001385276910112022000000000010200000044240                         001002771538000083                                        00000000000000000000000000000000000                 
2370001300320U 020000000000000000000000000000000000000000000000000000000000000000000000000000000000000000000000000000000000000000000000000809202200000000            000000000000000                              000                    00     
2370001300321T 0201692600000002699133009     000013852777100000001385277710112022000000000010200000044240                         001590274796000015                                        00000000000000000000000000000000000                 
2370001300322U 020000000000000000000000000000000000000000000000000000000000000000000000000000000000000000000000000000000000000000000000000809202200000000            000000000000000                              000                    00     
2370001300323T 0201692600000002699133009     000013852785100000001385278510112022000000000010200000044240                         001620745636000004                                        00000000000000000000000000000000000                 
2370001300324U 020000000000000000000000000000000000000000000000000000000000000000000000000000000000000000000000000000000000000000000000000809202200000000            000000000000000                              000                    00     
2370001300325T 0201692600000002699133009     000013852793100000001385279310112022000000000010200000044240                         001040440196000014                                        0000000000000000000000000A400000000                 
2370001300326U 020000000000000000000000000000000000000000000000000000000000000000000000000000000000000000000000000000000000000000000000000809202200000000            000000000000000                              000                    00     
2370001300327T 0201692600000002699133009     000013852807100000001385280710112022000000000010200000044240                         001079574048000047                                        0000000000000000000000000A400000000                 
2370001300328U 020000000000000000000000000000000000000000000000000000000000000000000000000000000000000000000000000000000000000000000000000809202200000000            000000000000000                              000                    00     
2370001300329T 0201692600000002699133009     000013852815100000001385281510112022000000000010200000044240                         001004511286000005                                        00000000000000000000000000000000000                 
2370001300330U 020000000000000000000000000000000000000000000000000000000000000000000000000000000000000000000000000000000000000000000000000809202200000000            000000000000000                              000                    00     
2370001300331T 0201692600000002699133009     000013852823100000001385282310112022000000000010200000044240                         001016198206000092                                        00000000000000000000000000000000000                 
2370001300332U 020000000000000000000000000000000000000000000000000000000000000000000000000000000000000000000000000000000000000000000000000809202200000000            000000000000000                              000                    00     
2370001300333T 0201692600000002699133009     000013852831100000001385283110112022000000000010200000044240                         001451090366000091                                        0000000000000000000000000A400000000                 
2370001300334U 020000000000000000000000000000000000000000000000000000000000000000000000000000000000000000000000000000000000000000000000000809202200000000            000000000000000                              000                    00     
2370001300335T 0201692600000002699133009     00001385284P100000001385284P10112022000000000010200000044240                         001690293506000087                                        00000000000000000000000000000000000                 
2370001300336U 020000000000000000000000000000000000000000000000000000000000000000000000000000000000000000000000000000000000000000000000000809202200000000            000000000000000                              000                    00     
2370001300337T 0201692600000002699133009     000013852858100000001385285810112022000000000010200000044240                         001076315246000037                                        00000000000000000000000000000000000                 
2370001300338U 020000000000000000000000000000000000000000000000000000000000000000000000000000000000000000000000000000000000000000000000000809202200000000            000000000000000                              000                    00     
2370001300339T 0201692600000002699133009     000013852866100000001385286610112022000000000010200000044240                         001437699696000034                                        0000000000000000000000000A400000000                 
2370001300340U 020000000000000000000000000000000000000000000000000000000000000000000000000000000000000000000000000000000000000000000000000809202200000000            000000000000000                              000                    00     
2370001300341T 0201692600000002699133009     000013852874100000001385287410112022000000000010200000044240                         001046675768000098                                        0000000000000000000000000A400000000                 
2370001300342U 020000000000000000000000000000000000000000000000000000000000000000000000000000000000000000000000000000000000000000000000000809202200000000            000000000000000                              000                    00     
2370001300343T 0201692600000002699133009     000013852882100000001385288210112022000000000010200000044240                         001097613836000001                                        00000000000000000000000000000000000                 
2370001300344U 020000000000000000000000000000000000000000000000000000000000000000000000000000000000000000000000000000000000000000000000000809202200000000            000000000000000                              000                    00     
2370001300345T 0201692600000002699133009     000013852890100000001385289010112022000000000010200000044240                         001443970116000072                                        0000000000000000000000000A400000000                 
2370001300346U 020000000000000000000000000000000000000000000000000000000000000000000000000000000000000000000000000000000000000000000000000809202200000000            000000000000000                              000                    00     
2370001300347T 0201692600000002699133009     000013852904100000001385290410112022000000000010200000044240                         001198029606000059                                        00000000000000000000000000000000000                 
2370001300348U 020000000000000000000000000000000000000000000000000000000000000000000000000000000000000000000000000000000000000000000000000809202200000000            000000000000000                              000                    00     
2370001300349T 0201692600000002699133009     000013852912100000001385291210112022000000000010200000044240                         001929791736000049                                        00000000000000000000000000000000000                 
2370001300350U 020000000000000000000000000000000000000000000000000000000000000000000000000000000000000000000000000000000000000000000000000809202200000000            000000000000000                              000                    00     
2370001300351T 0201692600000002699133009     000013852920100000001385292010112022000000000010200000044240                         001002920986000026                                        0000000000000000000000000A400000000                 
2370001300352U 020000000000000000000000000000000000000000000000000000000000000000000000000000000000000000000000000000000000000000000000000809202200000000            000000000000000                              000                    00     
2370001300353T 0201692600000002699133009     000013852939100000001385293910112022000000000010200000044240                         001152598076000093                                        00000000000000000000000000000000000                 
2370001300354U 020000000000000000000000000000000000000000000000000000000000000000000000000000000000000000000000000000000000000000000000000809202200000000            000000000000000                              000                    00     
2370001300355T 0201692600000002699133009     000013852947100000001385294710112022000000000010200000044240                         001750088826000000                                        0000000000000000000000000A400000000                 
2370001300356U 020000000000000000000000000000000000000000000000000000000000000000000000000000000000000000000000000000000000000000000000000809202200000000            000000000000000                              000                    00     
2370001300357T 0201692600000002699133009     000013852955100000001385295510112022000000000010200000044240                         001081955216000006                                        00000000000000000000000000000000000                 
2370001300358U 020000000000000000000000000000000000000000000000000000000000000000000000000000000000000000000000000000000000000000000000000809202200000000            000000000000000                              000                    00     
2370001300359T 0201692600000002699133009     000013852963100000001385296310112022000000000010200000044240                         001012474118000050                                        00000000000000000000000000000000000                 
2370001300360U 020000000000000000000000000000000000000000000000000000000000000000000000000000000000000000000000000000000000000000000000000809202200000000            000000000000000                              000                    00     
2370001300361T 0201692600000002699133009     000013852971100000001385297110112022000000000010200000044240                         001357618496000015                                        00000000000000000000000000000000000                 
2370001300362U 020000000000000000000000000000000000000000000000000000000000000000000000000000000000000000000000000000000000000000000000000809202200000000            000000000000000                              000                    00     
2370001300363T 0201692600000002699133009     00001385298P100000001385298P10112022000000000010200000044240                         001158669476000068                                        00000000000000000000000000000000000                 
2370001300364U 020000000000000000000000000000000000000000000000000000000000000000000000000000000000000000000000000000000000000000000000000809202200000000            000000000000000                              000                    00     
2370001300365T 0201692600000002699133009     000013852998100000001385299810112022000000000010200000044240                         001930498206000059                                        00000000000000000000000000000000000                 
2370001300366U 020000000000000000000000000000000000000000000000000000000000000000000000000000000000000000000000000000000000000000000000000809202200000000            000000000000000                              000                    00     
2370001300367T 0201692600000002699133009     000013853005100000001385300510112022000000000010200000044240                         001086204368000099                                        0000000000000000000000000A400000000                 
2370001300368U 020000000000000000000000000000000000000000000000000000000000000000000000000000000000000000000000000000000000000000000000000809202200000000            000000000000000                              000                    00     
2370001300369T 0201692600000002699133009     000013853013100000001385301310112022000000000010200000044240                         001115016266000004                                        00000000000000000000000000000000000                 
2370001300370U 020000000000000000000000000000000000000000000000000000000000000000000000000000000000000000000000000000000000000000000000000809202200000000            000000000000000                              000                    00     
2370001300371T 0201692600000002699133009     000013853021100000001385302110112022000000000010200000044240                         001433003916000087                                        00000000000000000000000000000000000                 
2370001300372U 020000000000000000000000000000000000000000000000000000000000000000000000000000000000000000000000000000000000000000000000000809202200000000            000000000000000                              000                    00     
2370001300373T 0201692600000002699133009     00001385303P100000001385303P10112022000000000010200000044240                         001877004096000068                                        00000000000000000000000000000000000                 
2370001300374U 020000000000000000000000000000000000000000000000000000000000000000000000000000000000000000000000000000000000000000000000000809202200000000            000000000000000                              000                    00     
2370001300375T 0201692600000002699133009     000013853048100000001385304810112022000000000010200000044240                         001718087106000006                                        0000000000000000000000000A400000000                 
2370001300376U 020000000000000000000000000000000000000000000000000000000000000000000000000000000000000000000000000000000000000000000000000809202200000000            000000000000000                              000                    00     
2370001300377T 0201692600000002699133009     000013853056100000001385305610112022000000000010200000044240                         001312826286000015                                        00000000000000000000000000000000000                 
2370001300378U 020000000000000000000000000000000000000000000000000000000000000000000000000000000000000000000000000000000000000000000000000809202200000000            000000000000000                              000                    00     
2370001300379T 0201692600000002699133009     000013853064100000001385306410112022000000000010200000044240                         001007325156000096                                        00000000000000000000000000000000000                 
2370001300380U 020000000000000000000000000000000000000000000000000000000000000000000000000000000000000000000000000000000000000000000000000809202200000000            000000000000000                              000                    00     
2370001300381T 0201692600000002699133009     000013853072100000001385307210112022000000000010200000044240                         001198462586000015                                        00000000000000000000000000000000000                 
2370001300382U 020000000000000000000000000000000000000000000000000000000000000000000000000000000000000000000000000000000000000000000000000809202200000000            000000000000000                              000                    00     
2370001300383T 0201692600000002699133009     000013853080100000001385308010112022000000000010200000044240                         001930521626000091                                        00000000000000000000000000000000000                 
2370001300384U 020000000000000000000000000000000000000000000000000000000000000000000000000000000000000000000000000000000000000000000000000809202200000000            000000000000000                              000                    00     
2370001300385T 0201692600000002699133009     000013853099100000001385309910112022000000000010200000044240                         001074290656000060                                        0000000000000000000000000A400000000                 
2370001300386U 020000000000000000000000000000000000000000000000000000000000000000000000000000000000000000000000000000000000000000000000000809202200000000            000000000000000                              000                    00     
2370001300387T 0201692600000002699133009     000013853102100000001385310210112022000000000010200000044240                         001949648666000053                                        00000000000000000000000000000000000                 
2370001300388U 020000000000000000000000000000000000000000000000000000000000000000000000000000000000000000000000000000000000000000000000000809202200000000            000000000000000                              000                    00     
2370001300389T 0201692600000002699133009     000013853110100000001385311010112022000000000010200000044240                         001075562068000023                                        00000000000000000000000000000000000                 
2370001300390U 020000000000000000000000000000000000000000000000000000000000000000000000000000000000000000000000000000000000000000000000000809202200000000            000000000000000                              000                    00     
2370001300391T 0201692600000002699133009     000013853129100000001385312910112022000000000010200000044240                         001000858926000070                                        00000000000000000000000000000000000                 
2370001300392U 020000000000000000000000000000000000000000000000000000000000000000000000000000000000000000000000000000000000000000000000000809202200000000            000000000000000                              000                    00     
2370001300393T 0201692600000002699133009     000013853137100000001385313710112022000000000010200000044240                         001863628108000030                                        0000000000000000000000000A400000000                 
2370001300394U 020000000000000000000000000000000000000000000000000000000000000000000000000000000000000000000000000000000000000000000000000809202200000000            000000000000000                              000                    00     
2370001300395T 0201692600000002699133009     000013853145100000001385314510112022000000000010200000044240                         001098670116000051                                        00000000000000000000000000000000000                 
2370001300396U 020000000000000000000000000000000000000000000000000000000000000000000000000000000000000000000000000000000000000000000000000809202200000000            000000000000000                              000                    00     
2370001300397T 0201692600000002699133009     000013853153100000001385315310112022000000000010200000044240                         001037037076000074                                        00000000000000000000000000000000000                 
2370001300398U 020000000000000000000000000000000000000000000000000000000000000000000000000000000000000000000000000000000000000000000000000809202200000000            000000000000000                              000                    00     
2370001300399T 0201692600000002699133009     000013853161100000001385316110112022000000000010200000044240                         001025990146000062                                        00000000000000000000000000000000000                 
2370001300400U 020000000000000000000000000000000000000000000000000000000000000000000000000000000000000000000000000000000000000000000000000809202200000000            000000000000000                              000                    00     
2370001300401T 0201692600000002699133009     00001385317P100000001385317P10112022000000000010200000044240                         001023699636000038                                        00000000000000000000000000000000000                 
2370001300402U 020000000000000000000000000000000000000000000000000000000000000000000000000000000000000000000000000000000000000000000000000809202200000000            000000000000000                              000                    00     
2370001300403T 0201692600000002699133009     000013853188100000001385318810112022000000000010200000044240                         001516197506000078                                        0000000000000000000000000A400000000                 
2370001300404U 020000000000000000000000000000000000000000000000000000000000000000000000000000000000000000000000000000000000000000000000000809202200000000            000000000000000                              000                    00     
2370001300405T 0201692600000002699133009     000013853196100000001385319610112022000000000010200000044240                         001127251716000001                                        0000000000000000000000000A400000000                 
2370001300406U 020000000000000000000000000000000000000000000000000000000000000000000000000000000000000000000000000000000000000000000000000809202200000000            000000000000000                              000                    00     
2370001300407T 0201692600000002699133009     00001385320P100000001385320P10112022000000000010200000044240                         001172095286000087                                        00000000000000000000000000000000000                 
2370001300408U 020000000000000000000000000000000000000000000000000000000000000000000000000000000000000000000000000000000000000000000000000809202200000000            000000000000000                              000                    00     
2370001300409T 0201692600000002699133009     000013853218100000001385321810112022000000000010200000044240                         001108800886000005                                        00000000000000000000000000000000000                 
2370001300410U 020000000000000000000000000000000000000000000000000000000000000000000000000000000000000000000000000000000000000000000000000809202200000000            000000000000000                              000                    00     
2370001300411T 0201692600000002699133009     000013853226100000001385322610112022000000000010200000044240                         001306394256000015                                        00000000000000000000000000000000000                 
2370001300412U 020000000000000000000000000000000000000000000000000000000000000000000000000000000000000000000000000000000000000000000000000809202200000000            000000000000000                              000                    00     
